:10000000FEEF01F04C65747261204E6F20457370F5
:10001000656369666963616461001650010A03E003
:10002000030A1CE036D01750490A03E0060A11E023
:1000300014D018503E0A03E0020A06E009D093905B
:100040008A8093928A9204D093928A8293908A9023
:1000500004D093908A9093928A921BD01750490AA9
:1000600003E0060A11E014D01850410A03E0170A11
:1000700006E009D093948A8493968A9604D0939646
:100080008A8693948A9404D093948A9493968A96B9
:1000900000D012001CC026F01DC027F01EC028F0A2
:1000A0001FC029F020C02AF021C02BF022C02CF064
:1000B00023C02DF024C02EF025C02FF0306A305020
:1000C00009080FE3036A3050260FE96E000E032083
:1000D000EA6EEFCF31F031509EA8FED7AD6E302AD8
:1000E000EED7ACEF00F01B6A1B50040820E31B3472
:1000F000006E0036FC0E0016C250C30B0010C26E1C
:100100000C0E006E002EFED700D00000D8901B34DD
:10011000036A110FE96E000E0320EA6EC282C2B2BA
:10012000FED7C3CFEFFFC4CFECFF1B2ADDD712C031
:100130001DF011C01CF014C01FF013C01EF016C03B
:1001400021F015C020F018C023F017C022F01AC00B
:1001500025F019C024F09ED78CEF02F01180118297
:1001600011A013D0958083A009D0010E166E4F0EFA
:10017000176E3E0E186E51DF119007D0010E166EED
:10018000490E176E3C0E186E48DF11A213D09582EF
:1001900083A209D0020E166E4F0E176E3E0E186E19
:1001A0003CDF119207D0020E166E490E176E3C0E00
:1001B000186E33DF11B0D4D711B2D2D7630E126EDE
:1001C00012509EA8FED7AD6E8CEF02F0176A175042
:1001D00001080DE3036A1750150FE96E000E0320A6
:1001E000EA6E9EAAFED7AECFEFFF172AF0D711C056
:1001F000E9FF12C0EAFF15C0EFFF13C0E9FF14C00A
:10020000EAFFEE52EE52EC6AED52EF6AED52EF6AFF
:10021000ED5216C0EFFF46EF02F016501802F3CF72
:1002200001F0F4CF00F01902F35000261750180225
:10023000F3500020026E52EF01F0EA6A1A0EE96EE6
:10024000EF500DE0020E016E006A002EFED7012E67
:10025000FBD7970E006E002EFED7EF2EF3D71200BD
:10026000900E156E010E166E490E176E3C0E186E2E
:10027000D4DE958083A0F6D7010E166E4F0E176E52
:10028000200E186ECADE020E166E490E176E560E3E
:10029000186EC3DE14C017F013C016F0196A15C02B
:1002A00018F0BBD702C017F001C016F002C018F05A
:1002B000182A1806D8B403D01A68BFDFFAD716C0B8
:1002C0001AF0BBDF020E166E4F0E176E200E186E60
:1002D000A4DE4FEF02F093988A8852EF02F0010EED
:1002E000166E490E176E3E0E186E97DE958283A22B
:1002F000F6D7010E166E4F0E176E200E186E8DDE9D
:10030000020E166E490E176E410E186E86DE12C072
:1003100015F0152A1506D8B403D01A688EDFFAD75F
:1003200011C01AF08ADF020E166E4F0E176E200EE5
:10033000186E73DE010E166E490E176E3C0E186EA7
:100340006CDE958083A0F6D7010E166E4F0E176EE9
:10035000200E186E62DE020E166E490E176E560ED5
:10036000186E5BDE11501124156E12501220166E9D
:1003700013501320176E14501420186E16C019F065
:10038000192A1906D8B403D01A6857DFFAD715C04E
:100390001AF053DF020E166E4F0E176E200E186EF7
:1003A0003CDE5FEF02F093988A988CEF02F0010E2A
:1003B000166E490E176E3E0E186E2FDE958683A6BA
:1003C000F6D7010E166E4F0E176E200E186E25DE34
:1003D0006E0E016E72EF02F00900F5520DE0F6CFDD
:1003E00011F0F7CF12F0F5509EA8FED7AD6E11C0F8
:1003F000F6FF12C0F7FFF0D785EF02F0F86AD09E43
:10040000700ED36ED350B886100EAF6E000EB06E65
:10041000A60EAC6E900EAB6EC150C00B0F09C16E34
:10042000070EB46E720ED36ED350C150C00B0609C6
:10043000C16EC050C00BC06EC08EC2809EAAFED7D7
:10044000AECF05F00550780A09E01B0A10E0110A4A
:1004500010E0010A46E01C0A4CE052D0010E166E74
:10046000490E176E3E0E186ED8DD3DD655D076D6A5
:1004700053D00E6A0D6A070E0C6ED00E0B6E126A08
:10048000060E116E146A070E136EA0D608C012F085
:1004900007C011F008C014F007C013F0E1D6936A4A
:1004A0008A6A19D70F6A06500F5C0BE20EC014F06F
:1004B0000DC013F00CC012F00BC011F010D70F2AB2
:1004C000F2D7010E166E4F0E176E200E186EA5DDB8
:1004D000020E166E4F0E176E200E186E9EDD63D73D
:1004E0001BD065D701C010F010509EA8FED7AD6E8E
:1004F00013D0010E166E4F0E176E200E186E8DDD86
:10050000040EF66E000EF76E67D7040E116EFA0E2B
:0C0510001A6E93DE112EFBD791D703006A
:020000040030CA
:0E0000003FC8381E0087A1000FC00FE00F4060
:00000001FF
;PIC18F4550
;CRC=BEF4  CREATED="07-Jan-16 14:33"
