:100000008EEF00F011C01BF012C01CF013C01DF0E9
:1000100014C01EF015C01FF016C020F017C021F04C
:1000200018C022F019C023F01AC024F0256A255008
:1000300009080FE3036A25501B0FE96E000E032029
:10004000EA6EEFCF26F026509EA8FED7AD6E252A89
:10005000EED78CEF00F0106A1050080848E31050FB
:10006000040825E1080E106E1034006E0036FC0EF8
:100070000016C250C30B0010C26E200E006E002E80
:10008000FED700D00000040E105C006ED890003641
:100090000050036A060FE96E000E0320EA6EC2826A
:1000A000C2B2FED7C3CFEFFFC4CFECFF1ED01034D7
:1000B000006E0036FC0E0016C250C30B0010C26E5C
:1000C000200E006E002EFED700D00000D890103415
:1000D000036A060FE96E000E0320EA6EC282C2B206
:1000E000FED7C3CFEFFFC4CFECFF102AB5D707C0B0
:1000F00012F006C011F009C014F008C013F00BC0D4
:1001000016F00AC015F00DC018F00CC017F00FC0A3
:100110001AF00EC019F076D7B4EF00F0F86AD09E4E
:10012000B8862A0EAF6E000EB06EA60EAC6E900EA4
:10013000AB6EC150C00B0F09C16E070EB46E9D8A25
:10014000C00EF212C150C00B0609C16EC050C00BE8
:100150000609C06EC08EC2809EAAFED7AECF05F043
:100160000550780803E177D77A0E056EF5D70300BE
:020000040030CA
:0E0000003FCC3E1E0087A1000FC00FE00F4056
:00000001FF
;PIC18F4550
;CRC=19F0  CREATED="26-Dec-15 20:44"
