:10000000FEEF01F04C65747261204E6F20457370F5
:10001000656369666963616461001750010A03E002
:10002000030A1CE036D01850490A03E0060A11E022
:1000300014D019503E0A03E0020A06E009D093905A
:100040008A8093928A9204D093928A8293908A9023
:1000500004D093908A9093928A921BD01850490AA8
:1000600003E0060A11E014D01950410A03E0170A10
:1000700006E009D093948A8493968A9604D0939646
:100080008A8693948A9404D093948A9493968A96B9
:1000900000D012001DC027F01EC028F01FC029F09C
:1000A00020C02AF021C02BF022C02CF023C02DF05C
:1000B00024C02EF025C02FF026C030F0316A315018
:1000C00009080FE3036A3150270FE96E000E032081
:1000D000EA6EEFCF32F032509EA8FED7AD6E312AD5
:1000E000EED7ACEF00F01C6A1C50040820E31C346F
:1000F000006E0036FC0E0016C250C30B0010C26E1C
:100100000C0E006E002EFED700D00000D8901C34DC
:10011000036A120FE96E000E0320EA6EC282C2B2B9
:10012000FED7C3CFEFFFC4CFECFF1C2ADDD713C02F
:100130001EF012C01DF015C020F014C01FF017C033
:1001400022F016C021F019C024F018C023F01BC003
:1001500026F01AC025F09ED797EF02F01280128287
:1001600012A013D0958083A009D0010E176E4F0EF8
:10017000186E3E0E196E51DF129007D0010E176EE9
:10018000490E186E3C0E196E48DF12A213D09582EC
:1001900083A209D0020E176E4F0E186E3E0E196E16
:1001A0003CDF129207D0020E176E490E186E3C0EFD
:1001B000196E33DF12B0D4D712B2D2D7630E136EDA
:1001C00013509EA8FED7AD6E97EF02F0186A185034
:1001D00001080DE3036A1850160FE96E000E0320A4
:1001E000EA6E9EAAFED7AECFEFFF182AF0D712C054
:1001F000E9FF13C0EAFF16C0EFFF14C0E9FF15C006
:10020000EAFFEE52EE52EC6AED52EF6AED52EF6AFF
:10021000ED5217C0EFFF49EF02F017501902F3CF6C
:1002200001F0F4CF00F01A02F35000261850190222
:10023000F3500020026E52EF01F0EA6A1B0EE96EE5
:10024000EF500DE0020E016E006A002EFED7012E67
:10025000FBD7970E006E002EFED7EF2EF3D71200BD
:10026000900E166E010E176E490E186E3C0E196E2A
:10027000D4DE958083A0F6D7010E176E4F0E186E50
:10028000200E196ECADE020E176E490E186E560E3B
:10029000196EC3DE15C018F014C017F01A6A16C024
:1002A00019F0BBD702C018F001C017F002C019F056
:1002B000192A1906D8B403D01B68BFDFFAD717C0B4
:1002C0001BF0BBDF020E176E4F0E186E200E196E5C
:1002D000A4DE52EF02F093988A8855EF02F0010EE7
:1002E000176E490E186E3E0E196E97DE958283A228
:1002F000F6D7010E176E4F0E186E200E196E8DDE9A
:10030000020E176E490E186E410E196E86DE13C06E
:1003100016F0162A1606D8B403D01B688EDFFAD75B
:1003200012C01BF08ADF020E176E4F0E186E200EE1
:10033000196E73DE010E176E490E186E3C0E196EA3
:100340006CDE958083A0F6D7010E176E4F0E186EE7
:10035000200E196E62DE020E176E490E186E560ED2
:10036000196E5BDE12501224166E13501320176E96
:1003700014501420186E15501520196E17C01AF05D
:100380001A2A1A06D8B403D01B6857DFFAD716C04A
:100390001BF053DF020E176E4F0E186E200E196EF3
:1003A0003CDE65EF02F093988A9897EF02F0010E19
:1003B000176E490E186E3E0E196E2FDE958683A6B7
:1003C000F6D7010E176E4F0E186E200E196E25DE31
:1003D0006E0E016E76EF02F00900F5520DE0F6CFD9
:1003E00012F0F7CF13F0F5509EA8FED7AD6E12C0F5
:1003F000F6FF13C0F7FFF0D790EF02F0F86AD09E37
:10040000700ED36ED350B886100EAF6E000EB06E65
:10041000A60EAC6E900EAB6EC150C00B0F09C16E34
:10042000070EB46E720ED36ED350C150C00B0609C6
:10043000C16EC050C00B0709C06EC08EC2809EAA9C
:10044000FED7AECF05F00550780A0BE01B0A12E08C
:10045000110A12E0010A49E01C0A4FE0020A55E0C5
:100460005AD0010E176E490E186E3E0E196ED5DD6C
:100470003AD65DD073D65BD00E6A0D6A070E0C6E4D
:10048000D00E0B6E136A060E126E156A070E146EEE
:100490009DD608C013F007C012F008C015F007C0C1
:1004A00014F0DED6936A8A6A16D70F6A06500F5C7C
:1004B0000CE20EC015F00DC014F00CC013F00BC010
:1004C00012F00DD702D00F2AF1D7010E176E4F0E82
:1004D000186E200E196EA1DD020E176E4F0E186EEB
:1004E000200E196E9ADD5FD722D061D701C010F0BF
:1004F00010509EA8FED7AD6E1AD0010E176E4F0E8B
:10050000186E200E196E89DD12D0116811509EA848
:10051000FED7AD6E0CD0040EF66E000EF76E5CD7F3
:10052000040E126EFA0E1B6E88DE122EFBD787D7D2
:020530000300C6
:020000040030CA
:0E0000003FC8381E0087A1000FC00FE00F4060
:00000001FF
;PIC18F4550
;CRC=D87D  CREATED="07-Jan-16 22:20"
