:10000000B5EF04F00401BD51BF03F3CF01F0F4CF0D
:1000100000F0C003F3500026BE51BF03F350002090
:10002000026E000112008E0E006EBCC401F0BBC453
:1000300002F0036A015209E102C001F0026A080EEF
:10004000005E015202E1006A08D0D89001BE04D0DF
:10005000023601360006F9D7019E12000401CA518A
:10006000D8B471D0006ECE51D8B46DD0002604E360
:10007000810E002668E204D07F0E005E64E363E038
:10008000CBC4D2F4CF51D21BCB8FCF8FCD51D10364
:10009000F4CFD4F4CC51D003F4CF03F0F3CFD3F4A6
:1000A000D103F350D427F450D323000E0322CD51B3
:1000B000D003F350D427F450D323000E026A032256
:1000C0000222CB51D103F350D327F4500322000E68
:1000D0000222CB51D003F3500326F4500222000E2B
:1000E000016A0122CD51CF03F350D327F4500322EC
:1000F000000E02220122CC51CF03F3500326F4500C
:100100000222000E0122CB51CF03F3500226F450FD
:100110000122002A01BE05D0D3370336023601364C
:100120000006000ED3AF0AD0032A0222012201509A
:1001300005E1025003E1035001E1002AD2BF018E24
:10014000D2AF019E04D0006A016A026A036A00010C
:100150001200800ED8A202D00401CF1B0401D46B80
:10016000D56BCBC4D3F4CF51D31BCA51D8B4DFD095
:10017000D26F006ECE51D8B4E3D0D25FD8B483D062
:100180003EE3CFC4D8F4D88FD0C4D7F4D1C4D6F4CA
:10019000D56BD890D833D733D633D533D22FF8D7C1
:1001A000D3AF03D0D481E0D0D491D291D489040EBE
:1001B000EA6ECD0EE96EEBD0D499D3BF0AD0D2A1AE
:1001C00013D0D833D733D633D533002AD8B4C7D0D9
:1001D0000BD0D8BF0CD0D890D537D637D737D83733
:1001E0000006D8B4BCD0F5D7D48D6DD0D49DCBC487
:1001F000D3F4CBAF02D0D88FABD0D89FA9D0CEC488
:10020000D2F4CEC400F0CA51D25FCBC4D8F4D88F98
:10021000CCC4D7F4CDC4D6F4D56BD890D833D7336B
:10022000D633D533D22FF8D7D3AF03D0D4839CD0D5
:10023000D493D291D48B040EEA6ED10EE96EA7D07E
:10024000D49BD3BF0AD0D2A113D0D833D733D6335F
:10025000D533002AD8B483D00BD0D8BF0CD0D890D7
:10026000D537D637D737D8370006D8B478D0F5D7B2
:10027000D48F29D0D49FCFC4D3F4CFAF02D0D88F9E
:1002800067D0D89F65D0CFC4D8F4D88FD0C4D7F466
:10029000D1C4D6F4D3AF04D0D89FD48565D0D4953B
:1002A000D56BD291040EEA6ECD0EE96E70D0D3BF3D
:1002B0001CD0CBC4D3F4D2A106D0D833D733D63395
:1002C000D533002A4CE0D5AF0BD0D62B09E1D72B84
:1002D00007E1D82B05E1D833D733D633002A3FE0E6
:1002E000D4BD84D7D4BFC6D71CD0800ED81BD8AFFE
:1002F00004D03AD0CFC4D3F40AD0CBC4D3F4D8536B
:1003000006E1D75304E1D65302E1006A21D0D8BFF9
:1003100008D0D890D537D637D737D837002EF7D76B
:100320001ED0D3AF02D0D88F13D0D89F11D0CEC457
:1003300000F0CFC4D8F4D0C4D7F4D1C4D6F408D0D8
:10034000CAC400F0CBC4D8F4CCC4D7F4CDC4D6F41E
:10035000D8C401F0D7C402F0D6C403F034D0006A88
:10036000016A026A036A2FD0D56BD61FD71FD81F28
:10037000D51FD52B05E1D62B03E1D72B01E1D82BD7
:10038000D4B112D7D4B354D7D4B589D7B3D7EF509B
:10039000D62705E3D72B03E1D82BD8B4D281ED5271
:1003A000EF50D72703E3D82BD8B4D281ED52EF50CA
:1003B000EFBE01D0800AD827D8B0D281D4B9FCD6FC
:1003C000D4BB3ED774D700018CEF02F00401CA51B0
:1003D000B608CA6F036ACBC4CEF4CB8FD890CB33A8
:1003E000CC33CD330332023201320032CA2FF6D77A
:1003F000CEAF0BD0001E011E021E031E002AD8B471
:10040000012AD8B4022AD8B4032A00019DEF02F0D1
:10041000D8B204D0040EEA6ED20EE96E006A016A08
:10042000026A036A0401D26BD36BD46BD56BD151D2
:10043000D011CF11CE112CE0200ED66FD890CA3734
:10044000CB37CC37CD37D237D337D437D537D15157
:10045000D55D08E1D051D45D05E1CF51D35D02E116
:10046000CE51D25D0FE3CE51D25FCF51D8A0CF3D58
:10047000D35FD051D8A0D03DD45FD151D8A0D13DC9
:10048000D55FD8800036013602360336D62FD6D750
:10049000D2C4EFFFD3C4ECFFD4C4ECFFD5C4ECFF4F
:1004A00000011200E9500401C26FC151C46F1BE08A
:1004B000C0C4CDF4BFC4CCF4BEC4CBF4BDC4CAF434
:1004C000D16BD06B200ECF6F820ECE6F0001C6DDD8
:1004D00003C0C0F402C0BFF401C0BEF400C0BDF44C
:1004E0000401C42FE5D77E0E006E016ABEBF018EE7
:1004F000026A036AD892C0C4CDF4BFC4CCF4BEC4AF
:10050000CBF4BDC4CAF403C0D1F402C0D0F401C01E
:10051000CFF4CE6F00011DD603C0C0F402C0BFF4FB
:1005200001C0BEF400C0BDF4C0C4CDF4BFC4CCF45F
:10053000BEC4CBF4BDC4CAF449D703C0C0F402C0E2
:10054000BFF401C0BEF400C0BDF40401C0AF0DD0C3
:10055000C207C28BBD1FBE1FBF1FC01FBD2BD8B49B
:10056000BE2BD8B4BF2BD8B4C02B3B0EC96F9A0E8C
:10057000C86FCA0EC76FC66B0A0EC46FC151D8B41C
:10058000C22BD882040EEA6EBD0EE96EC0C4CDF453
:10059000BFC4CCF4BEC4CBF4BDC4CAF4C9C4D1F446
:1005A000C8C4D0F4C7C4CFF4C6C4CEF4000130DF51
:1005B0000150005213E10401C129C45DD8A402D046
:1005C00000010CD0C2510DE00F0BC45D01E03CE214
:1005D000C2BF3AD0C2BD05D0200E31D0200E0401DA
:1005E000C217C2AB0DD0C29BC151D8A4C2070050E4
:1005F000C26F2D0E9EA8FED7AD6EC251006EC26BAB
:10060000C151C45D0BE10050C26F2E0E9EA8FED7F3
:10061000AD6EC251006E200EC217000E300EC2AB7E
:100620000ED0C29BC151D8A4C2070050C26F2D0E7C
:100630009EA8FED7AD6EC251006EC26B300E002672
:1006400000509EA8FED7AD6ED892C9C4CDF4C8C4E0
:10065000CCF4C7C4CBF4C6C4CAF4D16BD06BCF6B97
:100660000A0ECE6F0001D4DE03C0C9F402C0C8F484
:1006700001C0C7F400C0C6F40401C42F82D7000132
:1006800012000401B76BB7513108D8A06BD1B86B19
:10069000B8510808D8A057D1B8510408D8A4A9D097
:1006A000080EB86FB835006E0036FC0E0016C2504A
:1006B000C30B0010C26E0C0E006E002EFED700D0D1
:1006C0000000BE6BB7C4BDF4C06B180EBF6F000155
:1006D00099DC02C0BAF401C0B9F4030E0401B85D9C
:1006E000BC6FBE6BBD6FC06B040EBF6F00018ADCB8
:1006F00002C003F001500401B925016EBA51032272
:100700000150070FE96E000E0320EA6EC282C2B2EA
:10071000FED7C4CF03F0C3CFBBF4C4CFBCF40001F9
:1007200082DC00C0EFFF01C0ECFF02C0ECFF03C0A1
:10073000ECFF0401BE6BB7C4BDF4C06B180EBF6FF5
:10074000000160DC02C0BAF401C0B9F4030E040178
:10075000B85DBC6FBE6BBD6FC06B040EBF6F000198
:1007600051DC02C003F001500401B925016EBA51F9
:1007700003220150070FE96E000E0320EA6EEFCF4F
:1007800000F0ECCF01F0ECCF02F0ECCF03F0CD6B3A
:10079000CC6B7A0ECB6F7D0ECA6F03C0D1F402C052
:1007A000D0F401C0CFF400C0CEF4000157DC03C088
:1007B000BCF402C0BBF401C0BAF400C0B9F4890EA5
:1007C000E96E03C0C0F402C0BFF401C0BEF400C0B3
:1007D000BDF4020E0401C16F000164DE090E9EA883
:1007E000FED7AD6E060E006E002EFED70000A8D01C
:1007F0000401B835006E0036FC0E0016C250C30B63
:100800000010C26E0C0E006E002EFED700D000004D
:10081000BE6BB7C4BDF4C06B180EBF6F000102EC15
:1008200000F002C0BAF401C0B9F40401BE6BB8C450
:10083000BDF4C06B040EBF6F000102EC00F002C0FB
:1008400003F001500401B925016EBA510322015091
:10085000070FE96E000E0320EA6EC282C2B2FED715
:10086000C4CF03F0C3CFBBF4C4CFBCF4000113EC7E
:1008700000F000C0EFFF01C0ECFF02C0ECFF03C0BE
:10088000ECFF0401BE6BB7C4BDF4C06B180EBF6FA4
:10089000000102EC00F002C0BAF401C0B9F4040196
:1008A000BE6BB8C4BDF4C06B040EBF6F000102EC98
:1008B00000F002C003F001500401B925016EBA51E5
:1008C00003220150070FE96E000E0320EA6EEFCFFE
:1008D00000F0ECCF01F0ECCF02F0ECCF03F0CD6BE9
:1008E000CC6B7A0ECB6F7D0ECA6F03C0D1F402C001
:1008F000D0F401C0CFF400C0CEF400012EEC00F023
:1009000003C0BCF402C0BBF401C0BAF400C0B9F427
:10091000890EE96E03C0C0F402C0BFF401C0BEF48A
:1009200000C0BDF4020E0401C16F0001BBDD090E61
:100930009EA8FED7AD6E060E006E002EFED70000FC
:100940000401B82BA5D6060E006E002EFED70000BF
:100950000D0E9EA8FED7AD6E0A0E9EA8FED7AD6EF8
:10096000B72B91D60001D6EF04F0F86AD09EB88676
:10097000100EAF6E000EB06EA60EAC6E900EAB6E8B
:10098000C150C00B0F09C16E070EB46E066A056A2E
:10099000700ED36ED350C150C00B0609C16EC0504B
:1009A000C00B0709C06EC08EC2806BD60A0E9EA80F
:1009B000FED7AD6E0A0E9EA8FED7AD6EF6D7030029
:020000040030CA
:0E0000003FC03E1E0087A1000FC00FE00F4062
:00000001FF
;PIC18F4550
;CRC=F85D  CREATED="17-dic.-15 15:09"
