:10000000A0EF01F04C65747261204E6F2045737053
:100010006563696669636164610017C021F018C097
:1000200022F019C023F01AC024F01BC025F01CC018
:1000300026F01DC027F01EC028F01FC029F020C0E8
:100040002AF02B6A2B5009080FE3036A2B50210F6B
:10005000E96E000E0320EA6EEFCF2CF02C509EA824
:10006000FED7AD6E2B2AEED76FEF00F0166A165052
:10007000040820E31634006E0036FC0E0016C25051
:10008000C30B0010C26E200E006E002EFED700D0F3
:100090000000D8901634036A0C0FE96E000E03209E
:1000A000EA6EC282C2B2FED7C3CFEFFFC4CFECFF6D
:1000B000162ADDD70DC018F00CC017F00FC01AF0CB
:1000C0000EC019F011C01CF010C01BF013C01EF0C0
:1000D00012C01DF015C020F014C01FF09ED7F7EF1E
:1000E00001F00C800C820CA009D0958083A004D074
:1000F00095948C940C9002D095948C840CA209D089
:10010000958283A204D095988C980C9202D09598F1
:100110008C880CB0E8D70CB2E6D7630E0D6E0D508C
:100120009EA8FED7AD6EF7EF01F0EACF19F0E9CF48
:1001300018F01238F009146E1426E20F156E320F03
:10014000176E12500F0B152615261726E90F166E7F
:100150001626162611380F0B1626172616361736B2
:10016000171E173611500F0B17261436070E136E75
:100170000A0E16061726FDE315061626FDE31406DD
:100180001526FDE313061426FDE3EA6A130EE96E55
:10019000070E1814189CE926000EEA22E9501708E9
:1001A00003E1EA5201E1188CEF50006E08E118BC3F
:1001B00006D018B80CD018B602D0200E03D018867E
:1001C0001898300E002600509EA8FED7AD6EEE5057
:1001D00018ACE4D718EF01F0790E9EA8FED7AD6EEB
:1001E000610E9EA8FED7AD6E0E6A0E5001080DE39B
:1001F000036A0E500C0FE96E000E0320EA6E9EAAF1
:10020000FED7AECFEFFF0E2AF0D7000E0C100F6E08
:10021000106A0C509EA8FED7AD6E0D509EA8FED75A
:10022000AD6E100EE96E10C012F00FC011F07DD748
:100230000FC001F010C002F0CDEF01F0EA6A0F0E1E
:10024000E96EEF500DE0060E016E006A002EFED73B
:10025000012EFBD77B0E006E002EFED7EF2EF3D7BC
:10026000120095948C74020E0E6EFA0E0F6EE6DF7D
:100270000E2EFBD7DCEF01F00C50010A03E0030A5D
:100280001CE036D00D50490A03E0060A11E014D0F4
:100290000E503E0A03E0020A06E009D093908A80DD
:1002A00093928A9204D093928A8293908A9004D0F7
:1002B00093908A9093928A921BD00D50490A03E042
:1002C000060A11E014D00E503E0A03E0020A06E0CE
:1002D00009D093948A8493968A9604D093968A86BA
:1002E00093948A9404D093948A9493968A9600D097
:1002F0001200010E0C6E490E0D6E3E0E0E6EBCDF2E
:10030000958683A6F6D7010E0C6E4F0E0D6E200E4D
:100310000E6EB2DF6E0E016EE4EF01F00900F552D1
:100320000DE0F6CF0CF0F7CF0DF0F5509EA8FED7FC
:10033000AD6E0CC0F6FF0DC0F7FFF0D7F0EF01F087
:10034000F86AD09EB8862A0EAF6E000EB06EA60E6A
:10035000AC6E900EAB6EC150C00B0F09C16E070E94
:10036000B46EC150C00B0609C16EC050C00BC06E48
:10037000C08EC2809EAAFED7AECF05F00550780A87
:1003800007E01B0A07E0110A07E0010A1CE023D07E
:100390006DD62DD0A6D62BD01FD702C007F001C036
:1003A00006F00A6A075203E106500A5C0BE209C034
:1003B0000DF008C00CF055D702C009F001C008F0DC
:1003C0000A2AF0D714D095D701C00BF00B509EA885
:1003D000FED7AD6E0CD0040EF66E000EF76E9ED7F3
:1003E000040E0C6EFA0E0F6E29DF0C2EFBD7C2D74F
:0203F000030008
:020000040030CA
:0E00000004CC381E0087A1000FC00FE00F4097
:00000001FF
;PIC18F4550
;CRC=36ED  CREATED="05-Jan-16 17:11"
