:1000000061EF01F04C65747261204E6F2045737092
:100010006563696669636164610014C01EF015C0A0
:100020001FF016C020F017C021F018C022F019C030
:1000300023F01AC024F01BC025F01CC026F01DC000
:1000400027F0286A285009080FE3036A28501E0F7A
:10005000E96E000E0320EA6EEFCF29F029509EA82A
:10006000FED7AD6E282AEED76FEF00F0136A13505B
:10007000040820E31334006E0036FC0E0016C25054
:10008000C30B0010C26E200E006E002EFED700D0F3
:100090000000D8901334036A090FE96E000E0320A4
:1000A000EA6EC282C2B2FED7C3CFEFFFC4CFECFF6D
:1000B000132ADDD70AC015F009C014F00CC017F0E0
:1000C0000BC016F00EC019F00DC018F010C01BF0D8
:1000D0000FC01AF012C01DF011C01CF09ED7B1EF76
:1000E00001F00B50010A03E0030A1CE036D00C506B
:1000F000490A03E0060A11E014D00D503E0A03E05D
:10010000020A06E009D093908A8093928A9204D0E2
:1001100093928A8293908A9004D093908A9093923B
:100120008A921BD00C50490A03E0060A11E014D051
:100130000D503E0A03E0020A06E009D093948A8437
:1001400093968A9604D093968A8693948A9404D040
:1001500093948A9493968A9600D01200098009821B
:1001600009A013D0958083A009D0010E0B6E4F0E0D
:100170000C6E3E0E0D6EB5DF099007D0010E0B6EB2
:10018000490E0C6E3C0E0D6EACDF09A213D09582A9
:1001900083A209D0020E0B6E4F0E0C6E3E0E0D6E3A
:1001A000A0DF099207D0020E0B6E490E0C6E3C0EBA
:1001B0000D6E97DF09B0D4D709B2D2D7630E0A6E9D
:1001C0000A509EA8FED7AD6EB1EF01F09EAAFED7F1
:1001D000AECF09F009C001F08EEF01F0010E0B6EF9
:1001E000490E0C6E3C0E0D6E7CDF958083A0F6D719
:1001F000010E0B6E4F0E0C6E200E0D6E72DF91EF26
:1002000001F0EA6A0A0EE96EEF500DE0060E016E8B
:10021000006A002EFED7012EFBD77B0E006E002E4B
:10022000FED7EF2EF3D7120093908A80020E096E4C
:10023000FA0E0A6EE6DF092EFBD793928A82020E2F
:10024000096EFA0E0A6EDDDF092EFBD793948A84BD
:10025000020E096EFA0E0A6ED4DF092EFBD79396B2
:100260008A86020E096EFA0E0A6ECBDF092EFBD7C4
:1002700098EF01F0010E0B6E490E0C6E3E0E0D6EE6
:1002800030DF958683A6F6D7010E0B6E4F0E0C6EEF
:10029000200E0D6E26DF6E0E016E9EEF01F009003E
:1002A000F5520DE0F6CF09F0F7CF0AF0F5509EA811
:1002B000FED7AD6E09C0F6FF0AC0F7FFF0D7AAEF70
:1002C00001F0F86AD09EB8862A0EAF6E000EB06EAE
:1002D000A60EAC6E900EAB6EC150C00B0F09C16E76
:1002E000070EB46EC150C00B0609C16EC050C00BE2
:1002F000C06EC08EC2809EAAFED7AECF05F005505C
:10030000780A07E01B0A07E0110A07E0010A15E076
:100310001CD0ACD626D022D724D058D701C006F0A6
:100320005DD7936A8A6A076A0650075C05E27CD744
:10033000936A8A6A072AF8D714D09CD701C008F0BC
:1003400008509EA8FED7AD6E0CD0040EF66E000EBF
:10035000F76EA5D7040E096EFA0E0A6E52DF092E4B
:06036000FBD7C9D7030022
:020000040030CA
:0E00000004CC381E0087A1000FC00FE00F4097
:00000001FF
;PIC18F4550
;CRC=1E7C  CREATED="05-Jan-16 21:02"
