:10000000D9EF00F0F76A140FF66E000EF722090020
:10001000F5501200080402014C65747261204E6FA5
:10002000204573706563696669636164610011C02E
:100030001BF012C01CF013C01DF014C01EF015C040
:100040001FF016C020F017C021F018C022F019C010
:1000500023F01AC024F0256A255009080FE3036A2B
:1000600025501B0FE96E000E0320EA6EEFCF26F03D
:1000700026509EA8FED7AD6E252AEED779EF00F068
:10008000106A1050040820E31034006E0036FC0E95
:100090000016C250C30B0010C26E200E006E002E60
:1000A000FED700D00000D8901034036A060FE96E26
:1000B000000E0320EA6EC282C2B2FED7C3CFEFFFAA
:1000C000C4CFECFF102ADDD707C012F006C011F034
:1000D00009C014F008C013F00BC016F00AC015F0E8
:1000E0000DC018F00CC017F00FC01AF00EC019F0B8
:1000F0009ED711EF01F0EA6A090EE96EEF500DE0AC
:10010000060E016E006A002EFED7012EFBD77B0E75
:10011000006E002EFED7EF2EF3D71200086A0850AB
:1001200003080FE3036A0850F2CF09F0F29E6ADF7A
:1001300009BEF28E936A8A6E1E0E096EDCDF082AF3
:10014000EED712000680068206A00AD0958083A012
:1001500004D095948C94069003D095948C84DEDF23
:1001600006A209D0958283A204D095988C98069215
:1001700002D095988C8806B0E7D706B2E5D7630E13
:10018000076E07509EA8FED7AD6E11EF01F0090073
:10019000F5520DE0F6CF06F0F7CF07F0F5509EA828
:1001A000FED7AD6E06C0F6FF07C0F7FFF0D70AEF27
:1001B00001F0F86AD09EB8862A0EAF6E000EB06EBF
:1001C000A60EAC6E900EAB6EC150C00B0F09C16E87
:1001D000070EB46EC150C00B0609C16EC050C00BF3
:1001E000C06EC08EC2809EAAFED7AECF05F005506D
:1001F000780A05E01B0A05E0010A05E006D040D7B1
:1002000010D0A0D70ED08ADF0CD0180EF66E000EDC
:10021000F76EBDD7040E066EFA0E096E6CDF062E61
:06022000FBD7E1D703004B
:020000040030CA
:0E00000004CC381E0087A1000FC00FE00F4097
:00000001FF
;PIC18F4550
;CRC=69D7  CREATED="02-Jan-16 14:47"
